{
  "_format": "hh-sol-artifact-1",
  "contractName": "NFTUtilities",
  "sourceName": "contracts/NFTUtilities.sol",
  "abi": [
    {
      "inputs": [],
      "stateMutability": "nonpayable",
      "type": "constructor"
    },
    {
      "inputs": [],
      "name": "__TokenIDArrayEmpty",
      "type": "error"
    },
    {
      "anonymous": false,
      "inputs": [
        {
          "indexed": false,
          "internalType": "address",
          "name": "previousAdmin",
          "type": "address"
        },
        {
          "indexed": false,
          "internalType": "address",
          "name": "newAdmin",
          "type": "address"
        }
      ],
      "name": "AdminChanged",
      "type": "event"
    },
    {
      "anonymous": false,
      "inputs": [
        {
          "indexed": true,
          "internalType": "address",
          "name": "beacon",
          "type": "address"
        }
      ],
      "name": "BeaconUpgraded",
      "type": "event"
    },
    {
      "anonymous": false,
      "inputs": [
        {
          "indexed": false,
          "internalType": "uint8",
          "name": "version",
          "type": "uint8"
        }
      ],
      "name": "Initialized",
      "type": "event"
    },
    {
      "anonymous": false,
      "inputs": [
        {
          "indexed": false,
          "internalType": "address",
          "name": "account",
          "type": "address"
        }
      ],
      "name": "Paused",
      "type": "event"
    },
    {
      "anonymous": false,
      "inputs": [
        {
          "indexed": true,
          "internalType": "bytes32",
          "name": "role",
          "type": "bytes32"
        },
        {
          "indexed": true,
          "internalType": "bytes32",
          "name": "previousAdminRole",
          "type": "bytes32"
        },
        {
          "indexed": true,
          "internalType": "bytes32",
          "name": "newAdminRole",
          "type": "bytes32"
        }
      ],
      "name": "RoleAdminChanged",
      "type": "event"
    },
    {
      "anonymous": false,
      "inputs": [
        {
          "indexed": true,
          "internalType": "bytes32",
          "name": "role",
          "type": "bytes32"
        },
        {
          "indexed": true,
          "internalType": "address",
          "name": "account",
          "type": "address"
        },
        {
          "indexed": true,
          "internalType": "address",
          "name": "sender",
          "type": "address"
        }
      ],
      "name": "RoleGranted",
      "type": "event"
    },
    {
      "anonymous": false,
      "inputs": [
        {
          "indexed": true,
          "internalType": "bytes32",
          "name": "role",
          "type": "bytes32"
        },
        {
          "indexed": true,
          "internalType": "address",
          "name": "account",
          "type": "address"
        },
        {
          "indexed": true,
          "internalType": "address",
          "name": "sender",
          "type": "address"
        }
      ],
      "name": "RoleRevoked",
      "type": "event"
    },
    {
      "anonymous": false,
      "inputs": [
        {
          "indexed": false,
          "internalType": "address",
          "name": "account",
          "type": "address"
        }
      ],
      "name": "Unpaused",
      "type": "event"
    },
    {
      "anonymous": false,
      "inputs": [
        {
          "indexed": true,
          "internalType": "address",
          "name": "implementation",
          "type": "address"
        }
      ],
      "name": "Upgraded",
      "type": "event"
    },
    {
      "inputs": [],
      "name": "CONTRACT_ROLE",
      "outputs": [
        {
          "internalType": "bytes32",
          "name": "",
          "type": "bytes32"
        }
      ],
      "stateMutability": "view",
      "type": "function"
    },
    {
      "inputs": [],
      "name": "DEFAULT_ADMIN_ROLE",
      "outputs": [
        {
          "internalType": "bytes32",
          "name": "",
          "type": "bytes32"
        }
      ],
      "stateMutability": "view",
      "type": "function"
    },
    {
      "inputs": [],
      "name": "DEV_ROLE",
      "outputs": [
        {
          "internalType": "bytes32",
          "name": "",
          "type": "bytes32"
        }
      ],
      "stateMutability": "view",
      "type": "function"
    },
    {
      "inputs": [],
      "name": "PAUSER_ROLE",
      "outputs": [
        {
          "internalType": "bytes32",
          "name": "",
          "type": "bytes32"
        }
      ],
      "stateMutability": "view",
      "type": "function"
    },
    {
      "inputs": [
        {
          "internalType": "address",
          "name": "to",
          "type": "address"
        },
        {
          "internalType": "address",
          "name": "tokenAddress",
          "type": "address"
        },
        {
          "internalType": "uint256[]",
          "name": "tokenIds",
          "type": "uint256[]"
        }
      ],
      "name": "batchTransfer721",
      "outputs": [],
      "stateMutability": "nonpayable",
      "type": "function"
    },
    {
      "inputs": [
        {
          "internalType": "address",
          "name": "to",
          "type": "address"
        },
        {
          "internalType": "address",
          "name": "tokenAddress",
          "type": "address"
        },
        {
          "internalType": "uint256[]",
          "name": "tokenIds",
          "type": "uint256[]"
        }
      ],
      "name": "batchTransferDFKHeroes",
      "outputs": [],
      "stateMutability": "nonpayable",
      "type": "function"
    },
    {
      "inputs": [
        {
          "internalType": "bytes32",
          "name": "role",
          "type": "bytes32"
        }
      ],
      "name": "getRoleAdmin",
      "outputs": [
        {
          "internalType": "bytes32",
          "name": "",
          "type": "bytes32"
        }
      ],
      "stateMutability": "view",
      "type": "function"
    },
    {
      "inputs": [
        {
          "internalType": "bytes32",
          "name": "role",
          "type": "bytes32"
        },
        {
          "internalType": "uint256",
          "name": "index",
          "type": "uint256"
        }
      ],
      "name": "getRoleMember",
      "outputs": [
        {
          "internalType": "address",
          "name": "",
          "type": "address"
        }
      ],
      "stateMutability": "view",
      "type": "function"
    },
    {
      "inputs": [
        {
          "internalType": "bytes32",
          "name": "role",
          "type": "bytes32"
        }
      ],
      "name": "getRoleMemberCount",
      "outputs": [
        {
          "internalType": "uint256",
          "name": "",
          "type": "uint256"
        }
      ],
      "stateMutability": "view",
      "type": "function"
    },
    {
      "inputs": [
        {
          "internalType": "bytes32",
          "name": "role",
          "type": "bytes32"
        },
        {
          "internalType": "address",
          "name": "account",
          "type": "address"
        }
      ],
      "name": "grantRole",
      "outputs": [],
      "stateMutability": "nonpayable",
      "type": "function"
    },
    {
      "inputs": [
        {
          "internalType": "bytes32",
          "name": "role",
          "type": "bytes32"
        },
        {
          "internalType": "address",
          "name": "account",
          "type": "address"
        }
      ],
      "name": "hasRole",
      "outputs": [
        {
          "internalType": "bool",
          "name": "",
          "type": "bool"
        }
      ],
      "stateMutability": "view",
      "type": "function"
    },
    {
      "inputs": [],
      "name": "initialize",
      "outputs": [],
      "stateMutability": "nonpayable",
      "type": "function"
    },
    {
      "inputs": [],
      "name": "pause",
      "outputs": [],
      "stateMutability": "nonpayable",
      "type": "function"
    },
    {
      "inputs": [],
      "name": "paused",
      "outputs": [
        {
          "internalType": "bool",
          "name": "",
          "type": "bool"
        }
      ],
      "stateMutability": "view",
      "type": "function"
    },
    {
      "inputs": [],
      "name": "proxiableUUID",
      "outputs": [
        {
          "internalType": "bytes32",
          "name": "",
          "type": "bytes32"
        }
      ],
      "stateMutability": "view",
      "type": "function"
    },
    {
      "inputs": [
        {
          "internalType": "bytes32",
          "name": "role",
          "type": "bytes32"
        },
        {
          "internalType": "address",
          "name": "account",
          "type": "address"
        }
      ],
      "name": "renounceRole",
      "outputs": [],
      "stateMutability": "nonpayable",
      "type": "function"
    },
    {
      "inputs": [
        {
          "internalType": "bytes32",
          "name": "role",
          "type": "bytes32"
        },
        {
          "internalType": "address",
          "name": "account",
          "type": "address"
        }
      ],
      "name": "revokeRole",
      "outputs": [],
      "stateMutability": "nonpayable",
      "type": "function"
    },
    {
      "inputs": [
        {
          "internalType": "bytes4",
          "name": "interfaceId",
          "type": "bytes4"
        }
      ],
      "name": "supportsInterface",
      "outputs": [
        {
          "internalType": "bool",
          "name": "",
          "type": "bool"
        }
      ],
      "stateMutability": "view",
      "type": "function"
    },
    {
      "inputs": [],
      "name": "unpause",
      "outputs": [],
      "stateMutability": "nonpayable",
      "type": "function"
    },
    {
      "inputs": [
        {
          "internalType": "address",
          "name": "newImplementation",
          "type": "address"
        }
      ],
      "name": "upgradeTo",
      "outputs": [],
      "stateMutability": "nonpayable",
      "type": "function"
    },
    {
      "inputs": [
        {
          "internalType": "address",
          "name": "newImplementation",
          "type": "address"
        },
        {
          "internalType": "bytes",
          "name": "data",
          "type": "bytes"
        }
      ],
      "name": "upgradeToAndCall",
      "outputs": [],
      "stateMutability": "payable",
      "type": "function"
    }
  ],
  "bytecode": "0x60a06040523060805234801561001457600080fd5b5061001d610022565b6100e1565b600054610100900460ff161561008e5760405162461bcd60e51b815260206004820152602760248201527f496e697469616c697a61626c653a20636f6e747261637420697320696e697469604482015266616c697a696e6760c81b606482015260840160405180910390fd5b60005460ff908116146100df576000805460ff191660ff9081179091556040519081527f7f26b83ff96e1f2b6a682f133852f6798a09c465da95921460cefb38474024989060200160405180910390a15b565b608051611b54610118600039600081816105bd015281816105fd015281816106bc015281816106fc015261078b0152611b546000f3fe60806040526004361061012a5760003560e01c80635c975abb116100ab57806391d148541161006f57806391d148541461032f578063a217fddf1461034f578063ca15c87314610364578063d547741f14610384578063e63ab1e9146103a4578063fcf0f0d3146103c657600080fd5b80635c975abb14610295578063811b4fc8146102ad5780638129fc1c146102cd5780638456cb59146102e25780639010d07c146102f757600080fd5b806336568abe116100f257806336568abe146102185780633659cfe6146102385780633f4ba83a146102585780634f1ef2861461026d57806352d1902d1461028057600080fd5b806301ffc9a71461012f57806303fe46ab14610164578063248a9ca3146101a65780632c77bb8c146101d65780632f2ff15d146101f8575b600080fd5b34801561013b57600080fd5b5061014f61014a3660046115f3565b6103fa565b60405190151581526020015b60405180910390f35b34801561017057600080fd5b506101987f364d3d7565c7a8300c96fd53e065d19b65848d7b23b3191adcd55621c744223c81565b60405190815260200161015b565b3480156101b257600080fd5b506101986101c136600461161d565b60009081526097602052604090206001015490565b3480156101e257600080fd5b506101f66101f1366004611652565b610425565b005b34801561020457600080fd5b506101f66102133660046116e3565b610506565b34801561022457600080fd5b506101f66102333660046116e3565b610530565b34801561024457600080fd5b506101f661025336600461170f565b6105b3565b34801561026457600080fd5b506101f6610692565b6101f661027b366004611740565b6106b2565b34801561028c57600080fd5b5061019861077e565b3480156102a157600080fd5b5060335460ff1661014f565b3480156102b957600080fd5b506101f66102c8366004611652565b610831565b3480156102d957600080fd5b506101f661090b565b3480156102ee57600080fd5b506101f6610aa2565b34801561030357600080fd5b50610317610312366004611802565b610ac2565b6040516001600160a01b03909116815260200161015b565b34801561033b57600080fd5b5061014f61034a3660046116e3565b610ae1565b34801561035b57600080fd5b50610198600081565b34801561037057600080fd5b5061019861037f36600461161d565b610b0c565b34801561039057600080fd5b506101f661039f3660046116e3565b610b23565b3480156103b057600080fd5b50610198600080516020611ad883398151915281565b3480156103d257600080fd5b506101987f51b355059847d158e68950419dbcd54fad00bdfd0634c2515a5c533288c7f0a281565b60006001600160e01b03198216635a05180f60e01b148061041f575061041f82610b48565b92915050565b61042d610b7d565b600081900361044f5760405163f66abeed60e01b815260040160405180910390fd5b60005b818110156104ff57836001600160a01b0316632374580f338786868681811061047d5761047d611824565b6040516001600160e01b031960e088901b1681526001600160a01b03958616600482015294909316602485015250602090910201356044820152606401600060405180830381600087803b1580156104d457600080fd5b505af11580156104e8573d6000803e3d6000fd5b5050505080806104f790611850565b915050610452565b5050505050565b60008281526097602052604090206001015461052181610bc5565b61052b8383610bcf565b505050565b6001600160a01b03811633146105a55760405162461bcd60e51b815260206004820152602f60248201527f416363657373436f6e74726f6c3a2063616e206f6e6c792072656e6f756e636560448201526e103937b632b9903337b91039b2b63360891b60648201526084015b60405180910390fd5b6105af8282610bf1565b5050565b6001600160a01b037f00000000000000000000000000000000000000000000000000000000000000001630036105fb5760405162461bcd60e51b815260040161059c90611869565b7f00000000000000000000000000000000000000000000000000000000000000006001600160a01b0316610644600080516020611ab8833981519152546001600160a01b031690565b6001600160a01b03161461066a5760405162461bcd60e51b815260040161059c906118b5565b61067381610c13565b6040805160008082526020820190925261068f91839190610c3d565b50565b600080516020611ad88339815191526106aa81610bc5565b61068f610da8565b6001600160a01b037f00000000000000000000000000000000000000000000000000000000000000001630036106fa5760405162461bcd60e51b815260040161059c90611869565b7f00000000000000000000000000000000000000000000000000000000000000006001600160a01b0316610743600080516020611ab8833981519152546001600160a01b031690565b6001600160a01b0316146107695760405162461bcd60e51b815260040161059c906118b5565b61077282610c13565b6105af82826001610c3d565b6000306001600160a01b037f0000000000000000000000000000000000000000000000000000000000000000161461081e5760405162461bcd60e51b815260206004820152603860248201527f555550535570677261646561626c653a206d757374206e6f742062652063616c60448201527f6c6564207468726f7567682064656c656761746563616c6c0000000000000000606482015260840161059c565b50600080516020611ab883398151915290565b610839610b7d565b600081900361085b5760405163f66abeed60e01b815260040160405180910390fd5b60005b818110156104ff57836001600160a01b03166342842e0e338786868681811061088957610889611824565b6040516001600160e01b031960e088901b1681526001600160a01b03958616600482015294909316602485015250602090910201356044820152606401600060405180830381600087803b1580156108e057600080fd5b505af11580156108f4573d6000803e3d6000fd5b50505050808061090390611850565b91505061085e565b600054610100900460ff161580801561092b5750600054600160ff909116105b806109455750303b158015610945575060005460ff166001145b6109a85760405162461bcd60e51b815260206004820152602e60248201527f496e697469616c697a61626c653a20636f6e747261637420697320616c72656160448201526d191e481a5b9a5d1a585b1a5e995960921b606482015260840161059c565b6000805460ff1916600117905580156109cb576000805461ff0019166101001790555b6109d3610dfa565b6109db610e29565b6109e3610e29565b6109ee600033610bcf565b610a187f51b355059847d158e68950419dbcd54fad00bdfd0634c2515a5c533288c7f0a233610bcf565b610a30600080516020611ad883398151915233610bcf565b610a5a7f364d3d7565c7a8300c96fd53e065d19b65848d7b23b3191adcd55621c744223c33610bcf565b801561068f576000805461ff0019169055604051600181527f7f26b83ff96e1f2b6a682f133852f6798a09c465da95921460cefb38474024989060200160405180910390a150565b600080516020611ad8833981519152610aba81610bc5565b61068f610e50565b600082815260c960205260408120610ada9083610e8d565b9392505050565b60009182526097602090815260408084206001600160a01b0393909316845291905290205460ff1690565b600081815260c96020526040812061041f90610e99565b600082815260976020526040902060010154610b3e81610bc5565b61052b8383610bf1565b60006001600160e01b03198216637965db0b60e01b148061041f57506301ffc9a760e01b6001600160e01b031983161461041f565b60335460ff1615610bc35760405162461bcd60e51b815260206004820152601060248201526f14185d5cd8589b194e881c185d5cd95960821b604482015260640161059c565b565b61068f8133610ea3565b610bd98282610efc565b600082815260c96020526040902061052b9082610f82565b610bfb8282610f97565b600082815260c96020526040902061052b9082610ffe565b7f51b355059847d158e68950419dbcd54fad00bdfd0634c2515a5c533288c7f0a26105af81610bc5565b7f4910fdfa16fed3260ed0e7147f7cc6da11a60208b5b9406d12a635614ffd91435460ff1615610c705761052b83611013565b826001600160a01b03166352d1902d6040518163ffffffff1660e01b8152600401602060405180830381865afa925050508015610cca575060408051601f3d908101601f19168201909252610cc791810190611901565b60015b610d2d5760405162461bcd60e51b815260206004820152602e60248201527f45524331393637557067726164653a206e657720696d706c656d656e7461746960448201526d6f6e206973206e6f74205555505360901b606482015260840161059c565b600080516020611ab88339815191528114610d9c5760405162461bcd60e51b815260206004820152602960248201527f45524331393637557067726164653a20756e737570706f727465642070726f786044820152681a58589b195555525160ba1b606482015260840161059c565b5061052b8383836110af565b610db06110da565b6033805460ff191690557f5db9ee0a495bf2e6ff9c91a7834c1ba4fdd244a5e8aa4e537bd38aeae4b073aa335b6040516001600160a01b03909116815260200160405180910390a1565b600054610100900460ff16610e215760405162461bcd60e51b815260040161059c9061191a565b610bc3611123565b600054610100900460ff16610bc35760405162461bcd60e51b815260040161059c9061191a565b610e58610b7d565b6033805460ff191660011790557f62e78cea01bee320cd4e420270b5ea74000d11b0c9f74754ebdbfc544b05a258610ddd3390565b6000610ada8383611156565b600061041f825490565b610ead8282610ae1565b6105af57610eba81611180565b610ec5836020611192565b604051602001610ed6929190611989565b60408051601f198184030181529082905262461bcd60e51b825261059c916004016119fe565b610f068282610ae1565b6105af5760008281526097602090815260408083206001600160a01b03851684529091529020805460ff19166001179055610f3e3390565b6001600160a01b0316816001600160a01b0316837f2f8788117e7eff1d82e926ec794901d17c78024a50270940304540a733656f0d60405160405180910390a45050565b6000610ada836001600160a01b03841661132e565b610fa18282610ae1565b156105af5760008281526097602090815260408083206001600160a01b0385168085529252808320805460ff1916905551339285917ff6391f5c32d9c69d2a47ea670b442974b53935d1edc7fd64eb21e047a839171b9190a45050565b6000610ada836001600160a01b03841661137d565b6001600160a01b0381163b6110805760405162461bcd60e51b815260206004820152602d60248201527f455243313936373a206e657720696d706c656d656e746174696f6e206973206e60448201526c1bdd08184818dbdb9d1c9858dd609a1b606482015260840161059c565b600080516020611ab883398151915280546001600160a01b0319166001600160a01b0392909216919091179055565b6110b883611470565b6000825111806110c55750805b1561052b576110d483836114b0565b50505050565b60335460ff16610bc35760405162461bcd60e51b815260206004820152601460248201527314185d5cd8589b194e881b9bdd081c185d5cd95960621b604482015260640161059c565b600054610100900460ff1661114a5760405162461bcd60e51b815260040161059c9061191a565b6033805460ff19169055565b600082600001828154811061116d5761116d611824565b9060005260206000200154905092915050565b606061041f6001600160a01b03831660145b606060006111a1836002611a31565b6111ac906002611a48565b67ffffffffffffffff8111156111c4576111c461172a565b6040519080825280601f01601f1916602001820160405280156111ee576020820181803683370190505b509050600360fc1b8160008151811061120957611209611824565b60200101906001600160f81b031916908160001a905350600f60fb1b8160018151811061123857611238611824565b60200101906001600160f81b031916908160001a905350600061125c846002611a31565b611267906001611a48565b90505b60018111156112df576f181899199a1a9b1b9c1cb0b131b232b360811b85600f166010811061129b5761129b611824565b1a60f81b8282815181106112b1576112b1611824565b60200101906001600160f81b031916908160001a90535060049490941c936112d881611a5b565b905061126a565b508315610ada5760405162461bcd60e51b815260206004820181905260248201527f537472696e67733a20686578206c656e67746820696e73756666696369656e74604482015260640161059c565b60008181526001830160205260408120546113755750815460018181018455600084815260208082209093018490558454848252828601909352604090209190915561041f565b50600061041f565b600081815260018301602052604081205480156114665760006113a1600183611a72565b85549091506000906113b590600190611a72565b905081811461141a5760008660000182815481106113d5576113d5611824565b90600052602060002001549050808760000184815481106113f8576113f8611824565b6000918252602080832090910192909255918252600188019052604090208390555b855486908061142b5761142b611a85565b60019003818190600052602060002001600090559055856001016000868152602001908152602001600020600090556001935050505061041f565b600091505061041f565b61147981611013565b6040516001600160a01b038216907fbc7cd75a20ee27fd9adebab32041f755214dbc6bffa90cc0225b39da2e5c2d3b90600090a250565b6060610ada8383604051806060016040528060278152602001611af8602791396060600080856001600160a01b0316856040516114ed9190611a9b565b600060405180830381855af49150503d8060008114611528576040519150601f19603f3d011682016040523d82523d6000602084013e61152d565b606091505b509150915061153e86838387611548565b9695505050505050565b606083156115b75782516000036115b0576001600160a01b0385163b6115b05760405162461bcd60e51b815260206004820152601d60248201527f416464726573733a2063616c6c20746f206e6f6e2d636f6e7472616374000000604482015260640161059c565b50816115c1565b6115c183836115c9565b949350505050565b8151156115d95781518083602001fd5b8060405162461bcd60e51b815260040161059c91906119fe565b60006020828403121561160557600080fd5b81356001600160e01b031981168114610ada57600080fd5b60006020828403121561162f57600080fd5b5035919050565b80356001600160a01b038116811461164d57600080fd5b919050565b6000806000806060858703121561166857600080fd5b61167185611636565b935061167f60208601611636565b9250604085013567ffffffffffffffff8082111561169c57600080fd5b818701915087601f8301126116b057600080fd5b8135818111156116bf57600080fd5b8860208260051b85010111156116d457600080fd5b95989497505060200194505050565b600080604083850312156116f657600080fd5b8235915061170660208401611636565b90509250929050565b60006020828403121561172157600080fd5b610ada82611636565b634e487b7160e01b600052604160045260246000fd5b6000806040838503121561175357600080fd5b61175c83611636565b9150602083013567ffffffffffffffff8082111561177957600080fd5b818501915085601f83011261178d57600080fd5b81358181111561179f5761179f61172a565b604051601f8201601f19908116603f011681019083821181831017156117c7576117c761172a565b816040528281528860208487010111156117e057600080fd5b8260208601602083013760006020848301015280955050505050509250929050565b6000806040838503121561181557600080fd5b50508035926020909101359150565b634e487b7160e01b600052603260045260246000fd5b634e487b7160e01b600052601160045260246000fd5b6000600182016118625761186261183a565b5060010190565b6020808252602c908201527f46756e6374696f6e206d7573742062652063616c6c6564207468726f7567682060408201526b19195b1959d85d1958d85b1b60a21b606082015260800190565b6020808252602c908201527f46756e6374696f6e206d7573742062652063616c6c6564207468726f7567682060408201526b6163746976652070726f787960a01b606082015260800190565b60006020828403121561191357600080fd5b5051919050565b6020808252602b908201527f496e697469616c697a61626c653a20636f6e7472616374206973206e6f74206960408201526a6e697469616c697a696e6760a81b606082015260800190565b60005b83811015611980578181015183820152602001611968565b50506000910152565b7f416363657373436f6e74726f6c3a206163636f756e74200000000000000000008152600083516119c1816017850160208801611965565b7001034b99036b4b9b9b4b733903937b6329607d1b60179184019182015283516119f2816028840160208801611965565b01602801949350505050565b6020815260008251806020840152611a1d816040850160208701611965565b601f01601f19169190910160400192915050565b808202811582820484141761041f5761041f61183a565b8082018082111561041f5761041f61183a565b600081611a6a57611a6a61183a565b506000190190565b8181038181111561041f5761041f61183a565b634e487b7160e01b600052603160045260246000fd5b60008251611aad818460208701611965565b919091019291505056fe360894a13ba1a3210667c828492db98dca3e2076cc3735a920a3ca505d382bbc65d7a28e3265b37a6474929f336521b332c1681b933f6cb9f3376673440d862a416464726573733a206c6f772d6c6576656c2064656c65676174652063616c6c206661696c6564a26469706673582212205879bb37b864673b6870f584d8737f9734e1ffc9dc9c5822438268a13c30633b64736f6c63430008130033",
  "linkReferences": {},
  "deployedLinkReferences": {}
}